{
  "contractName": "Orderbook",
  "abi": [
    {
      "anonymous": false,
      "inputs": [
        {
          "indexed": true,
          "internalType": "uint256",
          "name": "orderId",
          "type": "uint256"
        },
        {
          "indexed": false,
          "internalType": "uint256",
          "name": "makeAmount",
          "type": "uint256"
        },
        {
          "indexed": false,
          "internalType": "uint256",
          "name": "takeAmount",
          "type": "uint256"
        },
        {
          "indexed": false,
          "internalType": "uint256",
          "name": "timestamp",
          "type": "uint256"
        },
        {
          "indexed": true,
          "internalType": "address",
          "name": "maker",
          "type": "address"
        },
        {
          "indexed": false,
          "internalType": "address",
          "name": "makeAsset",
          "type": "address"
        },
        {
          "indexed": false,
          "internalType": "address",
          "name": "takeAsset",
          "type": "address"
        }
      ],
      "name": "MakeEvent",
      "type": "event"
    },
    {
      "anonymous": false,
      "inputs": [
        {
          "indexed": true,
          "internalType": "uint256",
          "name": "orderId",
          "type": "uint256"
        },
        {
          "indexed": false,
          "internalType": "uint256",
          "name": "quantity",
          "type": "uint256"
        },
        {
          "indexed": false,
          "internalType": "uint256",
          "name": "fulfilledQuantity",
          "type": "uint256"
        },
        {
          "indexed": false,
          "internalType": "uint256",
          "name": "timestamp",
          "type": "uint256"
        },
        {
          "indexed": true,
          "internalType": "address",
          "name": "maker",
          "type": "address"
        },
        {
          "indexed": true,
          "internalType": "address",
          "name": "taker",
          "type": "address"
        },
        {
          "indexed": false,
          "internalType": "address",
          "name": "makeAsset",
          "type": "address"
        },
        {
          "indexed": false,
          "internalType": "address",
          "name": "takeAsset",
          "type": "address"
        }
      ],
      "name": "TakeEvent",
      "type": "event"
    },
    {
      "anonymous": false,
      "inputs": [
        {
          "indexed": true,
          "internalType": "uint256",
          "name": "orderId",
          "type": "uint256"
        },
        {
          "indexed": false,
          "internalType": "uint256",
          "name": "makeAmount",
          "type": "uint256"
        },
        {
          "indexed": false,
          "internalType": "uint256",
          "name": "takeAmount",
          "type": "uint256"
        },
        {
          "indexed": false,
          "internalType": "uint256",
          "name": "timestamp",
          "type": "uint256"
        },
        {
          "indexed": true,
          "internalType": "address",
          "name": "maker",
          "type": "address"
        },
        {
          "indexed": false,
          "internalType": "address",
          "name": "makeAsset",
          "type": "address"
        },
        {
          "indexed": false,
          "internalType": "address",
          "name": "takeAsset",
          "type": "address"
        }
      ],
      "name": "cancelEvent",
      "type": "event"
    },
    {
      "inputs": [],
      "name": "orderId",
      "outputs": [
        {
          "internalType": "uint256",
          "name": "",
          "type": "uint256"
        }
      ],
      "stateMutability": "view",
      "type": "function"
    },
    {
      "inputs": [
        {
          "internalType": "uint256",
          "name": "",
          "type": "uint256"
        }
      ],
      "name": "orders",
      "outputs": [
        {
          "internalType": "address",
          "name": "maker",
          "type": "address"
        },
        {
          "internalType": "address",
          "name": "makeAsset",
          "type": "address"
        },
        {
          "internalType": "uint256",
          "name": "makeAmount",
          "type": "uint256"
        },
        {
          "internalType": "address",
          "name": "taker",
          "type": "address"
        },
        {
          "internalType": "address",
          "name": "takeAsset",
          "type": "address"
        },
        {
          "internalType": "uint256",
          "name": "takeAmount",
          "type": "uint256"
        },
        {
          "internalType": "uint256",
          "name": "salt",
          "type": "uint256"
        },
        {
          "internalType": "uint256",
          "name": "startBlock",
          "type": "uint256"
        },
        {
          "internalType": "uint256",
          "name": "endBlock",
          "type": "uint256"
        }
      ],
      "stateMutability": "view",
      "type": "function"
    },
    {
      "inputs": [
        {
          "internalType": "uint256",
          "name": "id",
          "type": "uint256"
        }
      ],
      "name": "getOrder",
      "outputs": [
        {
          "components": [
            {
              "internalType": "address",
              "name": "maker",
              "type": "address"
            },
            {
              "internalType": "address",
              "name": "makeAsset",
              "type": "address"
            },
            {
              "internalType": "uint256",
              "name": "makeAmount",
              "type": "uint256"
            },
            {
              "internalType": "address",
              "name": "taker",
              "type": "address"
            },
            {
              "internalType": "address",
              "name": "takeAsset",
              "type": "address"
            },
            {
              "internalType": "uint256",
              "name": "takeAmount",
              "type": "uint256"
            },
            {
              "internalType": "uint256",
              "name": "salt",
              "type": "uint256"
            },
            {
              "internalType": "uint256",
              "name": "startBlock",
              "type": "uint256"
            },
            {
              "internalType": "uint256",
              "name": "endBlock",
              "type": "uint256"
            }
          ],
          "internalType": "struct Orderbook.Order",
          "name": "order",
          "type": "tuple"
        }
      ],
      "stateMutability": "view",
      "type": "function"
    },
    {
      "inputs": [
        {
          "internalType": "uint256",
          "name": "id",
          "type": "uint256"
        }
      ],
      "name": "getMaker",
      "outputs": [
        {
          "internalType": "address",
          "name": "maker",
          "type": "address"
        }
      ],
      "stateMutability": "view",
      "type": "function"
    },
    {
      "inputs": [
        {
          "internalType": "uint256",
          "name": "id",
          "type": "uint256"
        }
      ],
      "name": "getTaker",
      "outputs": [
        {
          "internalType": "address",
          "name": "taker",
          "type": "address"
        }
      ],
      "stateMutability": "view",
      "type": "function"
    },
    {
      "inputs": [
        {
          "internalType": "uint256",
          "name": "makeAmount",
          "type": "uint256"
        },
        {
          "internalType": "uint256",
          "name": "takeAmount",
          "type": "uint256"
        },
        {
          "internalType": "address",
          "name": "makeAsset",
          "type": "address"
        },
        {
          "internalType": "address",
          "name": "takeAsset",
          "type": "address"
        }
      ],
      "name": "openOrder",
      "outputs": [
        {
          "internalType": "uint256",
          "name": "id",
          "type": "uint256"
        }
      ],
      "stateMutability": "nonpayable",
      "type": "function"
    },
    {
      "inputs": [
        {
          "internalType": "uint256",
          "name": "id",
          "type": "uint256"
        }
      ],
      "name": "cancelOrder",
      "outputs": [
        {
          "internalType": "bool",
          "name": "success",
          "type": "bool"
        }
      ],
      "stateMutability": "nonpayable",
      "type": "function"
    },
    {
      "inputs": [
        {
          "internalType": "uint256",
          "name": "id",
          "type": "uint256"
        },
        {
          "internalType": "uint256",
          "name": "quantity",
          "type": "uint256"
        }
      ],
      "name": "buyAsset",
      "outputs": [
        {
          "internalType": "bool",
          "name": "success",
          "type": "bool"
        }
      ],
      "stateMutability": "nonpayable",
      "type": "function"
    }
  ],
  "bytecode": "0x608060405234801561001057600080fd5b5060016000819055506123b2806100286000396000f3fe608060405234801561001057600080fd5b50600436106100885760003560e01c80635e19abf11161005b5780635e19abf11461013b578063a85c38ef1461016b578063cbcc5b28146101a3578063d09ef241146101d357610088565b806309b69e8d1461008d578063163de5e5146100bd578063514fcac7146100db578063568615321461010b575b600080fd5b6100a760048036038101906100a291906116e1565b610203565b6040516100b49190611bc2565b60405180910390f35b6100c5610748565b6040516100d29190611df9565b60405180910390f35b6100f560048036038101906100f091906116b4565b61074e565b6040516101029190611bc2565b60405180910390f35b610125600480360381019061012091906116b4565b610c70565b6040516101329190611aba565b60405180910390f35b61015560048036038101906101509190611721565b610cb0565b6040516101629190611df9565b60405180910390f35b610185600480360381019061018091906116b4565b61122c565b60405161019a99989796959493929190611b0c565b60405180910390f35b6101bd60048036038101906101b891906116b4565b6112fa565b6040516101ca9190611aba565b60405180910390f35b6101ed60048036038101906101e891906116b4565b6113aa565b6040516101fa9190611ddd565b60405180910390f35b6000806002600085815260200190815260200160002090508060060154816002015411610265576040517f08c379a000000000000000000000000000000000000000000000000000000000815260040161025c90611c3d565b60405180910390fd5b60008160070154116102ac576040517f08c379a00000000000000000000000000000000000000000000000000000000081526004016102a390611c5d565b60405180910390fd5b428160080154116102f2576040517f08c379a00000000000000000000000000000000000000000000000000000000081526004016102e990611cdd565b60405180910390fd5b60008311610335576040517f08c379a000000000000000000000000000000000000000000000000000000000815260040161032c90611d3d565b60405180910390fd5b6000610364826005015461035684600201548761156290919063ffffffff16565b61157890919063ffffffff16565b905061037d84836002015461158e90919063ffffffff16565b826002018190555061039c81836005015461158e90919063ffffffff16565b8260050181905550338260030160006101000a81548173ffffffffffffffffffffffffffffffffffffffff021916908373ffffffffffffffffffffffffffffffffffffffff16021790555060008260040160009054906101000a900473ffffffffffffffffffffffffffffffffffffffff1673ffffffffffffffffffffffffffffffffffffffff166323b872dd8460030160009054906101000a900473ffffffffffffffffffffffffffffffffffffffff168560000160009054906101000a900473ffffffffffffffffffffffffffffffffffffffff16856040518463ffffffff1660e01b815260040161049293929190611ad5565b602060405180830381600087803b1580156104ac57600080fd5b505af11580156104c0573d6000803e3d6000fd5b505050506040513d601f19601f820116820180604052508101906104e49190611687565b905080610526576040517f08c379a000000000000000000000000000000000000000000000000000000000815260040161051d90611c7d565b60405180910390fd5b8260010160009054906101000a900473ffffffffffffffffffffffffffffffffffffffff1673ffffffffffffffffffffffffffffffffffffffff1663a9059cbb8460030160009054906101000a900473ffffffffffffffffffffffffffffffffffffffff16876040518363ffffffff1660e01b81526004016105a9929190611b99565b602060405180830381600087803b1580156105c357600080fd5b505af11580156105d7573d6000803e3d6000fd5b505050506040513d601f19601f820116820180604052508101906105fb9190611687565b90508061063d576040517f08c379a000000000000000000000000000000000000000000000000000000000815260040161063490611d1d565b60405180910390fd5b8260030160009054906101000a900473ffffffffffffffffffffffffffffffffffffffff1673ffffffffffffffffffffffffffffffffffffffff168360000160009054906101000a900473ffffffffffffffffffffffffffffffffffffffff1673ffffffffffffffffffffffffffffffffffffffff16877f385937c5a8c0f974d02410bc009c6f3b8b78473c16eeb796be701bb43c07e3588886428960010160009054906101000a900473ffffffffffffffffffffffffffffffffffffffff168a60040160009054906101000a900473ffffffffffffffffffffffffffffffffffffffff16604051610733959493929190611e14565b60405180910390a46001935050505092915050565b60015481565b60008060026000848152602001908152602001600020604051806101200160405290816000820160009054906101000a900473ffffffffffffffffffffffffffffffffffffffff1673ffffffffffffffffffffffffffffffffffffffff1673ffffffffffffffffffffffffffffffffffffffff1681526020016001820160009054906101000a900473ffffffffffffffffffffffffffffffffffffffff1673ffffffffffffffffffffffffffffffffffffffff1673ffffffffffffffffffffffffffffffffffffffff168152602001600282015481526020016003820160009054906101000a900473ffffffffffffffffffffffffffffffffffffffff1673ffffffffffffffffffffffffffffffffffffffff1673ffffffffffffffffffffffffffffffffffffffff1681526020016004820160009054906101000a900473ffffffffffffffffffffffffffffffffffffffff1673ffffffffffffffffffffffffffffffffffffffff1673ffffffffffffffffffffffffffffffffffffffff16815260200160058201548152602001600682015481526020016007820154815260200160088201548152505090503373ffffffffffffffffffffffffffffffffffffffff16816000015173ffffffffffffffffffffffffffffffffffffffff161461096e576040517f08c379a000000000000000000000000000000000000000000000000000000000815260040161096590611cbd565b60405180910390fd5b60008160e00151116109b5576040517f08c379a00000000000000000000000000000000000000000000000000000000081526004016109ac90611c5d565b60405180910390fd5b42816101000151116109fc576040517f08c379a00000000000000000000000000000000000000000000000000000000081526004016109f390611cdd565b60405180910390fd5b6000816040015111610a43576040517f08c379a0000000000000000000000000000000000000000000000000000000008152600401610a3a90611cfd565b60405180910390fd5b60026000848152602001908152602001600020600080820160006101000a81549073ffffffffffffffffffffffffffffffffffffffff02191690556001820160006101000a81549073ffffffffffffffffffffffffffffffffffffffff021916905560028201600090556003820160006101000a81549073ffffffffffffffffffffffffffffffffffffffff02191690556004820160006101000a81549073ffffffffffffffffffffffffffffffffffffffff0219169055600582016000905560068201600090556007820160009055600882016000905550506000816020015173ffffffffffffffffffffffffffffffffffffffff1663a9059cbb836000015184604001516040518363ffffffff1660e01b8152600401610b66929190611b99565b602060405180830381600087803b158015610b8057600080fd5b505af1158015610b94573d6000803e3d6000fd5b505050506040513d601f19601f82011682018060405250810190610bb89190611687565b905080610bfa576040517f08c379a0000000000000000000000000000000000000000000000000000000008152600401610bf190611d5d565b60405180910390fd5b816000015173ffffffffffffffffffffffffffffffffffffffff16847fa05ce158152fd022331e2a0e32bd826caa66e55304cf2afb7b51f06f47d6db2984604001518560a001514287602001518860800151604051610c5d959493929190611e14565b60405180910390a3600192505050919050565b60006002600083815260200190815260200160002060000160009054906101000a900473ffffffffffffffffffffffffffffffffffffffff169050919050565b6000808511610cf4576040517f08c379a0000000000000000000000000000000000000000000000000000000008152600401610ceb90611bdd565b60405180910390fd5b60008411610d37576040517f08c379a0000000000000000000000000000000000000000000000000000000008152600401610d2e90611bfd565b60405180910390fd5b8173ffffffffffffffffffffffffffffffffffffffff168373ffffffffffffffffffffffffffffffffffffffff161415610da6576040517f08c379a0000000000000000000000000000000000000000000000000000000008152600401610d9d90611c9d565b60405180910390fd5b600073ffffffffffffffffffffffffffffffffffffffff168373ffffffffffffffffffffffffffffffffffffffff161415610e16576040517f08c379a0000000000000000000000000000000000000000000000000000000008152600401610e0d90611d7d565b60405180910390fd5b600073ffffffffffffffffffffffffffffffffffffffff168273ffffffffffffffffffffffffffffffffffffffff161415610e86576040517f08c379a0000000000000000000000000000000000000000000000000000000008152600401610e7d90611c1d565b60405180910390fd5b610e8e6115a4565b60016000815480929190610ea190611fd5565b919050555033816000019073ffffffffffffffffffffffffffffffffffffffff16908173ffffffffffffffffffffffffffffffffffffffff168152505085816040018181525050848160a001818152505083816020019073ffffffffffffffffffffffffffffffffffffffff16908173ffffffffffffffffffffffffffffffffffffffff168152505082816080019073ffffffffffffffffffffffffffffffffffffffff16908173ffffffffffffffffffffffffffffffffffffffff1681525050428160e0018181525050620151808160e00151610f7f9190611e78565b816101000181815250508060026000600154815260200190815260200160002060008201518160000160006101000a81548173ffffffffffffffffffffffffffffffffffffffff021916908373ffffffffffffffffffffffffffffffffffffffff16021790555060208201518160010160006101000a81548173ffffffffffffffffffffffffffffffffffffffff021916908373ffffffffffffffffffffffffffffffffffffffff1602179055506040820151816002015560608201518160030160006101000a81548173ffffffffffffffffffffffffffffffffffffffff021916908373ffffffffffffffffffffffffffffffffffffffff16021790555060808201518160040160006101000a81548173ffffffffffffffffffffffffffffffffffffffff021916908373ffffffffffffffffffffffffffffffffffffffff16021790555060a0820151816005015560c0820151816006015560e08201518160070155610100820151816008015590505060008473ffffffffffffffffffffffffffffffffffffffff166323b872dd33308a6040518463ffffffff1660e01b815260040161113093929190611ad5565b602060405180830381600087803b15801561114a57600080fd5b505af115801561115e573d6000803e3d6000fd5b505050506040513d601f19601f820116820180604052508101906111829190611687565b9050806111c4576040517f08c379a00000000000000000000000000000000000000000000000000000000081526004016111bb90611dbd565b60405180910390fd5b3373ffffffffffffffffffffffffffffffffffffffff166001547f4318d92de17e1f517f10c57b00155b6bb78b2e66408d21f77b09fa9a699fbe178989428a8a604051611215959493929190611e14565b60405180910390a360015492505050949350505050565b60026020528060005260406000206000915090508060000160009054906101000a900473ffffffffffffffffffffffffffffffffffffffff16908060010160009054906101000a900473ffffffffffffffffffffffffffffffffffffffff16908060020154908060030160009054906101000a900473ffffffffffffffffffffffffffffffffffffffff16908060040160009054906101000a900473ffffffffffffffffffffffffffffffffffffffff16908060050154908060060154908060070154908060080154905089565b60006002600083815260200190815260200160002060030160009054906101000a900473ffffffffffffffffffffffffffffffffffffffff169050600073ffffffffffffffffffffffffffffffffffffffff168173ffffffffffffffffffffffffffffffffffffffff1614156113a5576040517f08c379a000000000000000000000000000000000000000000000000000000000815260040161139c90611d9d565b60405180910390fd5b919050565b6113b26115a4565b60026000838152602001908152602001600020604051806101200160405290816000820160009054906101000a900473ffffffffffffffffffffffffffffffffffffffff1673ffffffffffffffffffffffffffffffffffffffff1673ffffffffffffffffffffffffffffffffffffffff1681526020016001820160009054906101000a900473ffffffffffffffffffffffffffffffffffffffff1673ffffffffffffffffffffffffffffffffffffffff1673ffffffffffffffffffffffffffffffffffffffff168152602001600282015481526020016003820160009054906101000a900473ffffffffffffffffffffffffffffffffffffffff1673ffffffffffffffffffffffffffffffffffffffff1673ffffffffffffffffffffffffffffffffffffffff1681526020016004820160009054906101000a900473ffffffffffffffffffffffffffffffffffffffff1673ffffffffffffffffffffffffffffffffffffffff1673ffffffffffffffffffffffffffffffffffffffff1681526020016005820154815260200160068201548152602001600782015481526020016008820154815250509050919050565b600081836115709190611eff565b905092915050565b600081836115869190611ece565b905092915050565b6000818361159c9190611f59565b905092915050565b604051806101200160405280600073ffffffffffffffffffffffffffffffffffffffff168152602001600073ffffffffffffffffffffffffffffffffffffffff16815260200160008152602001600073ffffffffffffffffffffffffffffffffffffffff168152602001600073ffffffffffffffffffffffffffffffffffffffff168152602001600081526020016000815260200160008152602001600081525090565b60008135905061165781612337565b92915050565b60008151905061166c8161234e565b92915050565b60008135905061168181612365565b92915050565b60006020828403121561169d5761169c61207c565b5b60006116ab8482850161165d565b91505092915050565b6000602082840312156116ca576116c961207c565b5b60006116d884828501611672565b91505092915050565b600080604083850312156116f8576116f761207c565b5b600061170685828601611672565b925050602061171785828601611672565b9150509250929050565b6000806000806080858703121561173b5761173a61207c565b5b600061174987828801611672565b945050602061175a87828801611672565b935050604061176b87828801611648565b925050606061177c87828801611648565b91505092959194509250565b61179181611f8d565b82525050565b6117a081611f8d565b82525050565b6117af81611f9f565b82525050565b60006117c2601883611e67565b91506117cd82612081565b602082019050919050565b60006117e5601883611e67565b91506117f0826120aa565b602082019050919050565b6000611808601d83611e67565b9150611813826120d3565b602082019050919050565b600061182b601283611e67565b9150611836826120fc565b602082019050919050565b600061184e600d83611e67565b915061185982612125565b602082019050919050565b6000611871601483611e67565b915061187c8261214e565b602082019050919050565b6000611894602183611e67565b915061189f82612177565b604082019050919050565b60006118b7600e83611e67565b91506118c2826121c6565b602082019050919050565b60006118da601183611e67565b91506118e5826121ef565b602082019050919050565b60006118fd601383611e67565b915061190882612218565b602082019050919050565b6000611920601583611e67565b915061192b82612241565b602082019050919050565b6000611943601583611e67565b915061194e8261226a565b602082019050919050565b6000611966601383611e67565b915061197182612293565b602082019050919050565b6000611989601d83611e67565b9150611994826122bc565b602082019050919050565b60006119ac600c83611e67565b91506119b7826122e5565b602082019050919050565b60006119cf601583611e67565b91506119da8261230e565b602082019050919050565b610120820160008201516119fc6000850182611788565b506020820151611a0f6020850182611788565b506040820151611a226040850182611a9c565b506060820151611a356060850182611788565b506080820151611a486080850182611788565b5060a0820151611a5b60a0850182611a9c565b5060c0820151611a6e60c0850182611a9c565b5060e0820151611a8160e0850182611a9c565b50610100820151611a96610100850182611a9c565b50505050565b611aa581611fcb565b82525050565b611ab481611fcb565b82525050565b6000602082019050611acf6000830184611797565b92915050565b6000606082019050611aea6000830186611797565b611af76020830185611797565b611b046040830184611aab565b949350505050565b600061012082019050611b22600083018c611797565b611b2f602083018b611797565b611b3c604083018a611aab565b611b496060830189611797565b611b566080830188611797565b611b6360a0830187611aab565b611b7060c0830186611aab565b611b7d60e0830185611aab565b611b8b610100830184611aab565b9a9950505050505050505050565b6000604082019050611bae6000830185611797565b611bbb6020830184611aab565b9392505050565b6000602082019050611bd760008301846117a6565b92915050565b60006020820190508181036000830152611bf6816117b5565b9050919050565b60006020820190508181036000830152611c16816117d8565b9050919050565b60006020820190508181036000830152611c36816117fb565b9050919050565b60006020820190508181036000830152611c568161181e565b9050919050565b60006020820190508181036000830152611c7681611841565b9050919050565b60006020820190508181036000830152611c9681611864565b9050919050565b60006020820190508181036000830152611cb681611887565b9050919050565b60006020820190508181036000830152611cd6816118aa565b9050919050565b60006020820190508181036000830152611cf6816118cd565b9050919050565b60006020820190508181036000830152611d16816118f0565b9050919050565b60006020820190508181036000830152611d3681611913565b9050919050565b60006020820190508181036000830152611d5681611936565b9050919050565b60006020820190508181036000830152611d7681611959565b9050919050565b60006020820190508181036000830152611d968161197c565b9050919050565b60006020820190508181036000830152611db68161199f565b9050919050565b60006020820190508181036000830152611dd6816119c2565b9050919050565b600061012082019050611df360008301846119e5565b92915050565b6000602082019050611e0e6000830184611aab565b92915050565b600060a082019050611e296000830188611aab565b611e366020830187611aab565b611e436040830186611aab565b611e506060830185611797565b611e5d6080830184611797565b9695505050505050565b600082825260208201905092915050565b6000611e8382611fcb565b9150611e8e83611fcb565b9250827fffffffffffffffffffffffffffffffffffffffffffffffffffffffffffffffff03821115611ec357611ec261201e565b5b828201905092915050565b6000611ed982611fcb565b9150611ee483611fcb565b925082611ef457611ef361204d565b5b828204905092915050565b6000611f0a82611fcb565b9150611f1583611fcb565b9250817fffffffffffffffffffffffffffffffffffffffffffffffffffffffffffffffff0483118215151615611f4e57611f4d61201e565b5b828202905092915050565b6000611f6482611fcb565b9150611f6f83611fcb565b925082821015611f8257611f8161201e565b5b828203905092915050565b6000611f9882611fab565b9050919050565b60008115159050919050565b600073ffffffffffffffffffffffffffffffffffffffff82169050919050565b6000819050919050565b6000611fe082611fcb565b91507fffffffffffffffffffffffffffffffffffffffffffffffffffffffffffffffff8214156120135761201261201e565b5b600182019050919050565b7f4e487b7100000000000000000000000000000000000000000000000000000000600052601160045260246000fd5b7f4e487b7100000000000000000000000000000000000000000000000000000000600052601260045260246000fd5b600080fd5b7f4d616b6520616d6f756e742076616c7565206973206c6f770000000000000000600082015250565b7f54616b6520616d6f756e742076616c7565206973206c6f770000000000000000600082015250565b7f54616b65204173736574206164647265737320697320696e76616c6964000000600082015250565b7f4f7264657220697320636f6d706c657465640000000000000000000000000000600082015250565b7f496e76616c6964204f7264657200000000000000000000000000000000000000600082015250565b7f54616b6572206465706f736974206661696c6564000000000000000000000000600082015250565b7f4d616b6520616e642054616b652061737365747320617265207468652073616d60008201527f6500000000000000000000000000000000000000000000000000000000000000602082015250565b7f496e76616c696420547261646572000000000000000000000000000000000000600082015250565b7f4f72646572206861732065787069726564000000000000000000000000000000600082015250565b7f4f726465722068617320636f6d706c6574656400000000000000000000000000600082015250565b7f4d616b6572207769746864726177206661696c65640000000000000000000000600082015250565b7f496e73756666696369656e74207175616e746974790000000000000000000000600082015250565b7f43616e63656c6c6174696f6e204661696c656400000000000000000000000000600082015250565b7f4d616b65204173736574206164647265737320697320696e76616c6964000000600082015250565b7f4e6f2074616b6572207965740000000000000000000000000000000000000000600082015250565b7f4661696c656420746f20706c616365206f726465720000000000000000000000600082015250565b61234081611f8d565b811461234b57600080fd5b50565b61235781611f9f565b811461236257600080fd5b50565b61236e81611fcb565b811461237957600080fd5b5056fea26469706673582212207c4b71211de528c4198dd16b70f85b8d9f3ba3630ce68fc68c7df23e4babd83264736f6c63430008060033",
  "immutableReferences": {},
  "source": "// SPDX-License-Identifier: MIT\npragma solidity ^0.8.6;\nimport \"@openzeppelin/contracts/token/ERC20/ERC20.sol\";\nimport \"@openzeppelin/contracts/utils/math/SafeMath.sol\";\nimport \"@openzeppelin/contracts/security/ReentrancyGuard.sol\";\n// import \"@openzeppelin/contracts/proxy/utils/UUPSUpgradeable.sol\";\ncontract Orderbook is ReentrancyGuard{\n    using SafeMath for uint256;\n    uint256 public orderId;\n    struct Order{\n        address maker;\n        address makeAsset;\n        uint256 makeAmount;\n        address taker;\n        address takeAsset;\n        uint256 takeAmount;\n        uint256 salt;\n        uint256 startBlock;\n        uint256 endBlock;\n    }\n    mapping(uint256 => Order) public orders; \n\n    event MakeEvent(uint256 indexed orderId, \n                uint256 makeAmount,\n                uint256 takeAmount,\n                uint256 timestamp,\n                address indexed maker,                \n                address makeAsset,                \n                address takeAsset                \n                );\n    event TakeEvent(uint256 indexed orderId, \n                uint256 quantity,\n                uint256 fulfilledQuantity,\n                uint256 timestamp,\n                address indexed maker,  \n                address indexed taker,              \n                address makeAsset,                \n                address takeAsset                \n                );\n\n    //can not cancel once there is a taker, so no need\n    //for a taker\n    event cancelEvent(uint256 indexed orderId, \n                uint256 makeAmount,                \n                uint256 takeAmount,\n                uint256 timestamp,\n                address indexed maker,                \n                address makeAsset,                \n                address takeAsset );\n\n\n    function getOrder(uint256 id) public view returns(Order memory order){\n        order = orders[id];        \n    }\n    function getMaker(uint256 id) public view returns (address maker){\n        maker =  orders[id].maker;\n    }\n    function getTaker(uint256 id) public view returns (address taker){\n        taker = orders[id].taker;\n        require(taker != address(0),\"No taker yet\");\n        \n    }\n    function openOrder(\n            uint256 makeAmount,\n            uint256 takeAmount,                \n            address makeAsset,  \n            address takeAsset) external returns (uint256 id){                        \n\n        require(makeAmount > 0, \"Make amount value is low\");\n        require(takeAmount > 0, \"Take amount value is low\");\n        require(makeAsset != takeAsset, \"Make and Take assets are the same\");\n        require(makeAsset != address(0), \"Make Asset address is invalid\");\n        require(takeAsset != address(0), \"Take Asset address is invalid\");\n        \n        Order memory order;\n        \n        orderId++;  //order id starts from 1\n        order.maker = msg.sender;                    \n        order.makeAmount = makeAmount;\n        order.takeAmount = takeAmount;\n        order.makeAsset = makeAsset;\n        order.takeAsset = takeAsset;\n        order.startBlock = block.timestamp;\n        order.endBlock = order.startBlock + 1 days; //order expires after 1 day, if order is not fulfilled                \n        orders[orderId] = order;    \n\n        // Note: the makeAsset is an ERC20 asset, the msg.sender needs to have ERC20 to place order\n        // Note: Orderbook should have sufficient allowance approved by trader of ERC20 asset\n        //todo: create the erc20 asset\n        //todo: Add asset to the trader\n        //todo: Authorize and set allowance for this orderbook contract and traders\n        bool success = ERC20(makeAsset).transferFrom(msg.sender, address(this), makeAmount); //check this         \n        require(success, \"Failed to place order\");\n        emit MakeEvent(orderId, makeAmount,takeAmount, block.timestamp, msg.sender ,makeAsset, takeAsset );        \n        id = orderId; //return the newly created order id\n    }   \n    function cancelOrder(uint256 id) external returns(bool success){\n        //only maker can cancel live orders       \n        \n        Order memory order = orders[id];\n        require (order.maker == msg.sender, \"Invalid Trader\" );\n        require(order.startBlock > 0, \"Invalid Order\");\n        require (order.endBlock > block.timestamp, \"Order has expired\");\n        require(order.makeAmount > 0,\"Order has completed\");\n        delete orders[id]; //directly delete storage\n        //give previously staked maker's amount back to the order maker    \n        bool result = ERC20(order.makeAsset).transfer(order.maker, order.makeAmount);\n        require(result, \"Cancellation Failed\");       \n        emit cancelEvent(id, order.makeAmount, order.takeAmount, block.timestamp, order.maker, order.makeAsset, order.takeAsset);                \n        success = true;\n        \n    }\n    function buyAsset(uint256 id, uint256 quantity) external returns (bool success) {\n        \n        Order storage order = orders[id];        \n        require(order.makeAmount > order.salt, \"Order is completed\"); //check this\n        require(order.startBlock > 0, \"Invalid Order\");\n        require (order.endBlock > block.timestamp, \"Order has expired\");        \n        require(quantity > 0, \"Insufficient quantity\");\n        //taker's quantity \n        uint256 fulfilledQuantity = (quantity.mul(order.makeAmount)).div(order.takeAmount);\n\n        // require(quantity > order.makeAmount && \n        //fulfilledQuantity > order.takeAmount,\"Quantity too low\");\n\n        order.makeAmount = order.makeAmount.sub(quantity);\n        order.takeAmount = order.takeAmount.sub(fulfilledQuantity);    \n        order.taker = msg.sender; //is this required?\n        //todo: Create and mint takeAsset\n        //create users with takeAsset \n        //Authorize Orderbook contract to make trade on behalf of the taker\n        bool result = ERC20(order.takeAsset).transferFrom(order.taker, order.maker, fulfilledQuantity);\n        require(result, \"Taker deposit failed\");\n        //pay the make amount to taker for having given take asset\n        result = ERC20(order.makeAsset).transfer(order.taker, quantity);\n        require(result, \"Maker withdraw failed\");            \n        emit TakeEvent(id, quantity, fulfilledQuantity, block.timestamp, order.maker, order.taker, order.makeAsset, order.takeAsset);\n        success = true;\n    }\n\n}",
  "sourcePath": "/home/srigowri/Desktop/contracts/contracts/Orderbook.sol",
  "compiler": {
    "name": "solc",
    "version": "0.8.6+commit.11564f7e.Emscripten.clang"
  },
  "schemaVersion": "3.4.7",
  "updatedAt": "2022-07-01T02:27:29.641Z",
  "devdoc": {
    "kind": "dev",
    "methods": {},
    "version": 1
  },
  "userdoc": {
    "kind": "user",
    "methods": {},
    "version": 1
  }
}