{
  "contractName": "OrderbookProxy",
  "abi": [
    {
      "inputs": [
        {
          "internalType": "address",
          "name": "_implementation",
          "type": "address"
        }
      ],
      "stateMutability": "payable",
      "type": "constructor"
    },
    {
      "anonymous": false,
      "inputs": [
        {
          "indexed": true,
          "internalType": "address",
          "name": "implementation",
          "type": "address"
        },
        {
          "indexed": false,
          "internalType": "string",
          "name": "version",
          "type": "string"
        }
      ],
      "name": "Upgraded",
      "type": "event"
    },
    {
      "stateMutability": "payable",
      "type": "fallback"
    },
    {
      "inputs": [],
      "name": "implementation",
      "outputs": [
        {
          "internalType": "address",
          "name": "",
          "type": "address"
        }
      ],
      "stateMutability": "view",
      "type": "function"
    },
    {
      "inputs": [],
      "name": "orderId",
      "outputs": [
        {
          "internalType": "uint256",
          "name": "",
          "type": "uint256"
        }
      ],
      "stateMutability": "view",
      "type": "function"
    },
    {
      "inputs": [
        {
          "internalType": "uint256",
          "name": "",
          "type": "uint256"
        }
      ],
      "name": "orders",
      "outputs": [
        {
          "internalType": "address",
          "name": "maker",
          "type": "address"
        },
        {
          "internalType": "address",
          "name": "makeAsset",
          "type": "address"
        },
        {
          "internalType": "uint256",
          "name": "makeAmount",
          "type": "uint256"
        },
        {
          "internalType": "address",
          "name": "taker",
          "type": "address"
        },
        {
          "internalType": "address",
          "name": "takeAsset",
          "type": "address"
        },
        {
          "internalType": "uint256",
          "name": "takeAmount",
          "type": "uint256"
        },
        {
          "internalType": "uint256",
          "name": "salt",
          "type": "uint256"
        },
        {
          "internalType": "uint256",
          "name": "startBlock",
          "type": "uint256"
        },
        {
          "internalType": "uint256",
          "name": "endBlock",
          "type": "uint256"
        }
      ],
      "stateMutability": "view",
      "type": "function"
    },
    {
      "stateMutability": "payable",
      "type": "receive"
    }
  ],
  "bytecode": "0x60806040526040516107f43803806107f48339818101604052810190610025919061016d565b6100348161003a60201b60201c565b506102f8565b61004d816100f160201b6102001760201c565b61008c576040517f08c379a0000000000000000000000000000000000000000000000000000000008152600401610083906101bd565b60405180910390fd5b806100ad61009e61011460201b60201c565b61014e60201b6102231760201c565b60000160006101000a81548173ffffffffffffffffffffffffffffffffffffffff021916908373ffffffffffffffffffffffffffffffffffffffff16021790555050565b6000808273ffffffffffffffffffffffffffffffffffffffff163b119050919050565b600060017f360894a13ba1a3210667c828492db98dca3e2076cc3735a920a3ca505d382bbd60001c61014691906101ee565b60001b905090565b6000819050919050565b600081519050610167816102e1565b92915050565b6000602082840312156101835761018261028d565b5b600061019184828501610158565b91505092915050565b60006101a7602d836101dd565b91506101b282610292565b604082019050919050565b600060208201905081810360008301526101d68161019a565b9050919050565b600082825260208201905092915050565b60006101f982610254565b915061020483610254565b9250828210156102175761021661025e565b5b828203905092915050565b600061022d82610234565b9050919050565b600073ffffffffffffffffffffffffffffffffffffffff82169050919050565b6000819050919050565b7f4e487b7100000000000000000000000000000000000000000000000000000000600052601160045260246000fd5b600080fd5b7f455243313936373a206e657720696d706c656d656e746174696f6e206973206e60008201527f6f74206120636f6e747261637400000000000000000000000000000000000000602082015250565b6102ea81610222565b81146102f557600080fd5b50565b6104ed806103076000396000f3fe6080604052600436106100385760003560e01c8063163de5e5146100515780635c60da1b1461007c578063a85c38ef146100a757610047565b36610047576100456100ec565b005b61004f6100ec565b005b34801561005d57600080fd5b50610066610106565b60405161007391906103e1565b60405180910390f35b34801561008857600080fd5b5061009161010c565b60405161009e9190610339565b60405180910390f35b3480156100b357600080fd5b506100ce60048036038101906100c991906102ee565b610132565b6040516100e399989796959493929190610354565b60405180910390f35b6100f461022d565b6101046100ff61022f565b61023e565b565b60005481565b600260009054906101000a900473ffffffffffffffffffffffffffffffffffffffff1681565b60016020528060005260406000206000915090508060000160009054906101000a900473ffffffffffffffffffffffffffffffffffffffff16908060010160009054906101000a900473ffffffffffffffffffffffffffffffffffffffff16908060020154908060030160009054906101000a900473ffffffffffffffffffffffffffffffffffffffff16908060040160009054906101000a900473ffffffffffffffffffffffffffffffffffffffff16908060050154908060060154908060070154908060080154905089565b6000808273ffffffffffffffffffffffffffffffffffffffff163b119050919050565b6000819050919050565b565b6000610239610264565b905090565b3660008037600080366000845af43d6000803e806000811461025f573d6000f35b3d6000fd5b600061027661027161029f565b610223565b60000160009054906101000a900473ffffffffffffffffffffffffffffffffffffffff16905090565b600060017f360894a13ba1a3210667c828492db98dca3e2076cc3735a920a3ca505d382bbd60001c6102d191906103fc565b60001b905090565b6000813590506102e8816104a0565b92915050565b6000602082840312156103045761030361049b565b5b6000610312848285016102d9565b91505092915050565b61032481610430565b82525050565b61033381610462565b82525050565b600060208201905061034e600083018461031b565b92915050565b60006101208201905061036a600083018c61031b565b610377602083018b61031b565b610384604083018a61032a565b610391606083018961031b565b61039e608083018861031b565b6103ab60a083018761032a565b6103b860c083018661032a565b6103c560e083018561032a565b6103d361010083018461032a565b9a9950505050505050505050565b60006020820190506103f6600083018461032a565b92915050565b600061040782610462565b915061041283610462565b9250828210156104255761042461046c565b5b828203905092915050565b600061043b82610442565b9050919050565b600073ffffffffffffffffffffffffffffffffffffffff82169050919050565b6000819050919050565b7f4e487b7100000000000000000000000000000000000000000000000000000000600052601160045260246000fd5b600080fd5b6104a981610462565b81146104b457600080fd5b5056fea2646970667358221220d3ff81256f988943902a37c53520b2dffa18bd2040445d2cf6fa97ac06755cbe64736f6c63430008060033",
  "immutableReferences": {},
  "source": "// SPDX-License-Identifier: MIT\n\npragma solidity ^0.8.6;\nimport \"@openzeppelin/contracts/proxy/Proxy.sol\";\nimport \"@openzeppelin/contracts/utils/StorageSlot.sol\";\nimport \"@openzeppelin/contracts/utils/Address.sol\"; \ncontract OrderbookProxy is Proxy{    \n    uint256 public orderId;\n    struct Order{\n        address maker;\n        address makeAsset;\n        uint256 makeAmount;\n        address taker;\n        address takeAsset;\n        uint256 takeAmount;\n        uint256 salt;\n        uint256 startBlock;\n        uint256 endBlock;\n    }\n    mapping(uint256 => Order) public orders; \n    address public implementation;\n    event Upgraded(address indexed implementation, string version);\n    constructor(address _implementation) payable {\n        _setImplementation(_implementation);\n    }\n    function _implementation() internal view virtual override returns (address) {\n        return _getImplementation();\n    }\n    function _getImplementationSlot() private pure returns (bytes32){\n        // Equivalent to:\n        return bytes32(uint256(keccak256(\"eip1967.proxy.implementation\")) - 1);        \n    }\n    function _getImplementation() private view returns (address) {\n        return StorageSlot.getAddressSlot(_getImplementationSlot()).value;\n    }\n    function _setImplementation(address newImplementation) private {\n        require(Address.isContract(newImplementation), \"ERC1967: new implementation is not a contract\");\n        StorageSlot.getAddressSlot(_getImplementationSlot()).value = newImplementation;\n    }    \n\n}",
  "sourcePath": "/home/srigowri/Desktop/contracts/contracts/Upgradable.sol",
  "compiler": {
    "name": "solc",
    "version": "0.8.6+commit.11564f7e.Emscripten.clang"
  },
  "schemaVersion": "3.4.7",
  "updatedAt": "2022-06-30T13:00:46.613Z",
  "devdoc": {
    "kind": "dev",
    "methods": {},
    "version": 1
  },
  "userdoc": {
    "kind": "user",
    "methods": {},
    "version": 1
  }
}